:100000000C9482000C94AA000C94AA000C94AA00F0
:100010000C94AA000C94AA000C94AA000C94AA00B8
:100020000C94AA000C94AA000C94AA000C94AA00A8
:100030000C94AA000C94AA000C94AA000C94AA0098
:100040000C94760A0C94AA000C94530C0C94A10CFA
:100050000C94AA000C94AA000C94AA000C94AA0078
:100060000C94AA000C94AA000000000024002700B1
:100070002A0000000000250028002B0000000000DE
:1000800023002600290004040404040404040202DA
:100090000202020203030303030301020408102007
:1000A0004080010204081020010204081020000012
:1000B0000007000201000003040600000000000029
:1000C0000000494E46494E4954594E414ECDCCCC84
:1000D0003D0AD7233C17B7D13877CC2B329595E61C
:1000E000241FB14F0A000020410000C84200401CFC
:1000F0004620BCBE4CCA1B0E5AAEC59D740074048B
:10010000860D6D0411241FBECFEFD8E0DEBFCDBF3A
:1001100011E0A0E0B1E0ECE4F3E202C005900D9242
:10012000AE34B107D9F712E0AEE4B1E001C01D92E0
:10013000AD35B107E1F710E0C2E0D1E004C022978D
:10014000FE010E945311CE3FD107C9F70E94DC0D7A
:100150000C9499110C940000CF93DF93BC01823072
:10016000910510F462E070E0A0915902B0915A023A
:10017000ED01E0E0F0E040E050E021C088819981AD
:100180008617970769F48A819B81309719F09383CA
:10019000828304C090935A0280935902FE0134C0B6
:1001A0006817790738F44115510519F08417950738
:1001B00008F4AC01FE018A819B819C01E901209732
:1001C000E9F641155105A9F1CA01861B970B049761
:1001D00008F4BA01E0E0F0E02AC08D919C911197FB
:1001E00084179507F9F46417750781F412968D91B9
:1001F0009C911397309719F09383828304C0909356
:100200005A0280935902FD0132964CC0CA01861BE6
:10021000970BFD01E80FF91F6193719302978D937E
:100220009C9340C0FD01828193819C01D90110976C
:10023000A1F68091570290915802892B41F4809148
:100240001D0190911E019093580280935702409196
:100250001F01509120014115510541F44DB75EB782
:1002600080911B0190911C01481B590B2091570252
:1002700030915802CA01821B930B8617970780F0B2
:10028000AB014E5F5F4F8417950750F0420F531F2D
:100290005093580240935702F9016193719302C041
:1002A000E0E0F0E0CF01DF91CF910895CF93DF93AD
:1002B000009709F450C0EC0122971B821A82A0918A
:1002C0005902B0915A02109709F140E050E0AC1782
:1002D000BD0708F1BB83AA83FE0121913191E20F92
:1002E000F31FAE17BF0779F48D919C911197280FDA
:1002F000391F2E5F3F4F3983288312968D919C9131
:1003000013979B838A834115510571F4D0935A0248
:10031000C093590220C012968D919C911397AD0104
:10032000009711F0DC01D3CFFA01D383C28321916E
:100330003191E20FF31FCE17DF0769F488819981AD
:10034000280F391F2E5F3F4FFA01318320838A81A6
:100350009B8193838283DF91CF910895A0E0B0E0E9
:10036000E4EBF1E00C9464116C01009729F4CB01EB
:100370000E94AC006C01C1C08EEF882E8FEF982ECA
:100380008C0C9D1C8601060F171F0815190508F413
:10039000B2C0F401A081B181A617B707B8F0A530AB
:1003A000B10508F4AAC0CD0104978617970708F491
:1003B000A4C01297A61BB70BF801A193B193D40167
:1003C0006D937C93CF010E94560197C07B01EA1A7E
:1003D000FB0AEEEFFFEFEE0EFF1E36016A0E7B1EEC
:1003E000C0915902D0915A0244245524AA24BB2416
:1003F0004AC0C615D705E1F5488159814E155F05FC
:10040000B8F1CA0104978E159F05B0F41296A40F97
:10041000B51FF401B183A0832A813B8141145104AB
:1004200031F0D20113963C932E93129766C030930D
:100430005A022093590261C08A819B81F8019383FB
:100440008283425050404E195F09518340834114CA
:10045000510431F0D20113961C930E93129704C0ED
:1004600010935A0200935902F4017183608345C0CE
:1004700088819981A816B90608F45C012E018A8149
:100480009B819C01E901209709F0B3CF809157022D
:100490009091580286159705E9F4A616B706D0F490
:1004A00020911F01309120012115310541F42DB714
:1004B0003EB780911B0190911C01281B390B02173C
:1004C0001307C8F41093580200935702D4016D9398
:1004D0007C9313C0CB010E94AC00EC01009759F053
:1004E000F40140815181B6010E948702C6010E9439
:1004F00056016E0102C0CC24DD24C601CDB7DEB7A3
:10050000E0E10C948011662777270C94AF02FB0181
:10051000DC0102C001900D9241505040D8F708957F
:10052000FB01DC018D91019080190110D9F3990B29
:100530000895FB01DC0101900D920020E1F7089580
:10054000FB01DC014150504048F001900D92002029
:10055000C9F701C01D9241505040E0F70895A0E056
:10056000B0E0E5EBF2E00C946811EC015B01611581
:10057000710519F0FB0191838083F9908F2D90E034
:100580000E945711892BC9F7FDE2FF1621F4F9905B
:10059000EE24E39405C02BE2F21609F4F990EE2460
:1005A0008E0101501040C80162EC70E043E050E061
:1005B0000E940F04892B01F58E010E5F1F4FC801A9
:1005C00065EC70E045E050E00E940F04892B19F4BF
:1005D0008E01095F1F4FA114B10419F0F5011183B9
:1005E0000083E0FC04C070E090E080E814C070E09C
:1005F00090E080E86FEF08C1C8016AEC70E043E06A
:1006000050E00E940F04892B69F4A114B10429F46D
:1006100070E090E080EC6FE7F7C02296F501D1839F
:10062000C083F6CF8824992440E050E060E070E079
:10063000EF2DE053EA30A0F5F2E0EF2A8E2D90E0A6
:100640009C0128703070E2FE06C0232B79F50894D7
:10065000811C911C2BC0232B19F008948108910850
:10066000DB01CA0112E0880F991FAA1FBB1F1A9550
:10067000D1F7480F591F6A1F7B1F440F551F661F74
:10068000771F4E0F511D611D711D483929E9520711
:1006900029E9620729E1720748F084E0E82A06C0E8
:1006A000EE3F31F4E3FC39C098E0E92AF990C0CF7D
:1006B000E53311F0E53189F529912D3219F4E0E1A6
:1006C000EE2A05C02B3219F081E090E003C0299199
:1006D00082E090E0E22FE053EA3018F0C81BD90B1B
:1006E0001CC020E030E0FCE020383F075CF4C9018A
:1006F000880F991F880F991F280F391F220F331F4A
:100700002E0F311DE991E053EA3068F3E4FE03C097
:10071000309521953F4F820E931ECE2CDD24E1FEB5
:1007200007C0A114B10421F02197F501D183C08342
:10073000CB01BA010E9438107B018C01F3E0CF227B
:10074000DD2423E0C216D10421F417FB109517F91C
:10075000109557016801C801B70120E030E040E082
:1007600050E00E943410882309F44AC097FE0DC05F
:1007700021EEE22E20E0F22E909481949108939441
:10078000C0E2D0E000E010E012C099EFE92E90E066
:10079000F92EF6CFF7012591359145915491C60177
:1007A000B5010E94EE105B016C018C1A9D0A8C163B
:1007B0009D0684F7D595C7950F5F1F4F063011052D
:1007C00029F08CEF9FEFE80EF91EF1CFC501D6019D
:1007D0007C018D018C2D880F8D2D881F8F3F51F04E
:1007E000C601B50120E030E040E050E00E94341046
:1007F000882331F482E290E090935C0280935B0264
:100800007E2D9F2D802F612F272F392F482F562F78
:10081000B901CA01CDB7DEB7ECE00C948411FB013D
:10082000DC014150504088F08D9181341CF08B35B3
:100830000CF4805E659161341CF06B350CF4605EE5
:10084000861B611171F3990B0895881BFCCFEF9201
:100850000F938130910549F56F5F7F4FD9F58EE495
:1008600091E061E271E041E351E025E331E004E031
:10087000E4E0EE2E0E94ED088CE791E060E071E08C
:100880000E946E0F83E891E060E071E00E946E0FBD
:100890008AE891E060E071E00E946E0F81E991E0EA
:1008A00060E071E00E946E0F15C0892B99F46F5FB4
:1008B0007F4F81F481E991E00E94C30F8AE891E0C3
:1008C0000E94C30F83E891E00E94C30F8CE791E080
:1008D0000E94C30F0F91EF90089580E090E06FEFBA
:1008E0007FEF0E942704089581E090E06FEF7FEF93
:1008F0000E9427040895CF93DF93C0E0D0E08BE0FF
:1009000061E00E94AB0B8AE061E00E94AB0B62E306
:1009100070E080E090E00E94D80A8BE060E00E94E6
:10092000AB0B8AE060E00E94AB0B62E370E080E01A
:1009300090E00E94D80A2196C530D10501F7DF91D9
:10094000CF910895CF93DF93C0E0D0E08BE060E0DB
:100950000E94AB0B8AE061E00E94AB0B62E370E0A7
:1009600080E090E00E94D80A8BE060E00E94AB0B30
:100970008AE060E00E94AB0B62E370E080E090E010
:100980000E94D80A2196CA30D10501F7DF91CF9194
:1009900008950F931F9385E392E061E071E00E9458
:1009A000510E00E011E08CE791E0B8010E94880F41
:1009B00083E891E0B8010E94880F8AE891E0B801CD
:1009C0000E94880F81E991E0B8010E94880F80E0C1
:1009D00090E0A0E0B0E08093660190936701A0935F
:1009E0006801B093690180936A0190936B01A093B1
:1009F0006C01B0936D0180936E0190936F01A09391
:100A00007001B0937101109277011092760180937A
:100A1000720190937301A0937401B09375011092C9
:100A200079011092780110927B0110927A011F9146
:100A30000F910895CF92DF92EF92FF920F931F9341
:100A4000DF93CF93CDB7DEB7C659D0400FB6F89439
:100A5000DEBF0FBECDBF8CE791E06E010894C11CD4
:100A6000D11CB60142E350E020E030E00E94640E69
:100A7000F3E3EF2EF12CEC0EFD1E83E891E0B701BD
:100A800042E350E020E030E00E94640E8E010B59FA
:100A90001F4F81E991E0B80142E350E020E030E0EF
:100AA0000E94640EC6010E948302609366017093E7
:100AB00067018093680190936901C7010E948302D6
:100AC00060936A0170936B0180936C0190936D0148
:100AD000C8010E9483026093720170937301809336
:100AE000740190937501809178019091790101973B
:100AF00001F56091660170916701809168019091A4
:100B0000690120916A0130916B0140916C01509113
:100B10006D010E94D00F60936E0170936F018093FE
:100B20007001909371018AE891E06DE071E00E949C
:100B3000880F8091780190917901029701F5609179
:100B4000660170916701809168019091690120911F
:100B50006A0130916B0140916C0150916D010E94CE
:100B6000CF0F60936E0170936F018093700190932B
:100B700071018AE891E061E171E00E94880F609163
:100B800072017091730180917401909175012091AF
:100B90006E0130916F0140917001509171010E947E
:100BA000CF0F7B018C0120E030E040E050E00E945C
:100BB000EA1018165CF4C801B7012DEB37E346E8DC
:100BC00055E30E943410882394F40AC0C801B70189
:100BD0002DEB37E346E855EB0E94EA1018163CF47B
:100BE0008BE061E00E94AB0B8AE060E006C08BE026
:100BF00060E00E94AB0B8AE061E00E94AB0B0E94B8
:100C0000CA0A6093620170936301809364019093B8
:100C100065010E94C904CA56DF4F0FB6F894DEBFC3
:100C20000FBECDBFCF91DF911F910F91FF90EF903D
:100C3000DF90CF900895FF920F931F93DF93CF9390
:100C4000CDB7DEB7C455D0400FB6F894DEBF0FBEA7
:100C5000CDBF0E94CA0A2091620130916301409188
:100C6000640150916501621B730B840B950B2091FD
:100C7000390130913A0140913B0150913C012617D6
:100C800037074807590740F48BE060E00E94AB0B40
:100C90008AE060E00E94AB0B8EE491E00E94660A5D
:100CA000F82E8DE3F81619F18F156CF08DE2F81619
:100CB00009F459C08EE2F81609F4BEC08BE2F816AA
:100CC00009F019C130C08FE3F81639F083E4F81643
:100CD00009F011C10E947B040BC180917A019091AF
:100CE0007B01039709F0FCC00E941A0575C1809131
:100CF0007A0190917B01029709F0F2C0109277017E
:100D00001092760183E090E090937B0180937A01CA
:100D10008E010F5F1F4FC8016AE871E00E94B80F93
:100D2000C8016DE358C08091780190917901892BB9
:100D300009F0D6C0109277011092760181E090E020
:100D4000909379018093780190937B0180937A014D
:100D50008E01085F1F4FC8016AE871E00E94B80F5A
:100D6000C8016BE238C08091780190917901892B9C
:100D7000C1F58CE791E060E071E00E94910E88235C
:100D800081F08E01015F1F4FC8016CE771E00E9486
:100D9000B80FC8016DE20E943C0FBC018CE791E0E6
:100DA0000BC1109277011092760182E090E090934F
:100DB00079018093780181E090E090937B018093AA
:100DC0007A018E010A5E1F4FC8016AE871E00E9435
:100DD000B80FC8016DE20E943C0FBC018AE891E0A7
:100DE000EBC080917A0190917B01039709F0EAC0F2
:100DF00081E991E060E071E00E94910E882309F49E
:100E0000E1C08E01035E1F4FC80161E971E00E94DD
:100E1000B80FC8016DE2CBC08E010C5D1F4FC80139
:100E200063E871E00E94B80FC8016DE20E943C0FB8
:100E3000BC0183E891E0C0C0809176019091770178
:100E4000892B09F04DC081E090E090937701809369
:100E5000760180917A0190917B01892BA1F48E011A
:100E6000055D1F4FC8016CE771E00E94B80FC80113
:100E70006EE20E943C0FBC018CE791E00E94A10F42
:100E8000C8010E94C90F80917A0190917B0101975E
:100E90000297A0F48E010E5C1F4FC80163E871E059
:100EA0000E94B80FC8016EE20E943C0FBC0183E8AB
:100EB00091E00E94A10FC8010E94C90F80917A01A0
:100EC00090917B01039709F087C08E01075C1F4F4B
:100ED000C80161E971E00E94B80FC8016EE267C005
:100EE0008AE891E065E171E00E94880F0E94A20407
:100EF0000E94C90471C0FF2009F46EC08BE060E05D
:100F00000E94AB0B8AE060E00E94AB0B80917801FD
:100F100090917901892BA1F48E01005C1F4FC801CB
:100F20006CE771E00E94B80FC8016F2D0E943C0F62
:100F3000BC018CE791E00E94A10FC8010E94C90F7B
:100F400080917801909179010197029700F5809145
:100F50007A0190917B010397D1F08E01095B1F4FBD
:100F6000C80163E871E00E94B80FC8016F2D0E94AC
:100F70003C0FBC0183E891E00E94A10FC8010E94D0
:100F8000C90F82E090E090937B0180937A01809179
:100F90007A0190917B010397F9F48E01025B1F4F58
:100FA000C80161E971E00E94B80FC8016F2D0E946D
:100FB0003C0FBC0181E991E00E94A10FC8010E9491
:100FC000C90F0AC083E891E060E071E00E94910ED1
:100FD000882309F021CF84CFCC5ADF4F0FB6F89485
:100FE000DEBF0FBECDBFCF91DF911F910F91FF905C
:100FF0000895EF92FF920F931F93DF93CF93CDB796
:10100000DEB76C970FB6F894DEBF0FBECDBF8BE096
:1010100061E00E946C0B8AE061E00E946C0BA0E032
:10102000EA2EA1E0FA2E8E010F5F1F4FC801B70113
:101030000E946E0F8CE791E0B8010E94A10FC801D9
:101040000E94C30F8E01085F1F4FC801B7010E94A5
:101050006E0F83E891E0B8010E94A10FC8010E94C1
:10106000C30F8E01015F1F4FC801B7010E946E0FB1
:101070008AE891E0B8010E94A10FC8010E94C30F45
:101080008E010A5E1F4FC801B7010E946E0F81E9F1
:1010900091E0B8010E94A10FC8010E94C30F80E037
:1010A00090E0A0E0B0E08093660190936701A09388
:1010B0006801B093690180936A0190936B01A093DA
:1010C0006C01B0936D0180936E0190936F01A093BA
:1010D0007001B09371018093720190937301A0939A
:1010E0007401B093750110927701109276011092FD
:1010F00079011092780110927B0110927A010E947E
:101100007B046C960FB6F894DEBF0FBECDBFCF91B7
:10111000DF911F910F91FF90EF900895FC01708770
:10112000678381E0838B268537852115310519F08A
:101130008185F90109950895FF920F931F93CF932D
:10114000DF938C01FF2417C0D8011496ED91FC9118
:101150001597EC0FFD1F808161E00E946C0BD80198
:101160001496ED91FC911597EC0FFD1F808160E0C6
:101170000E94AB0BF394CF2DD0E0F80186818295CD
:101180008F7090E0C817D907FCF2FF2417C0D80170
:101190001296ED91FC911397EC0FFD1F808160E09A
:1011A0000E946C0BD8011296ED91FC911397EC0FF5
:1011B000FD1F808161E00E94AB0BF394CF2DD0E046
:1011C000F80186818F7090E0C817D90704F3DF918A
:1011D000CF911F910F91FF900895CF92DF92EF92E0
:1011E0000F936C01FC015383428335832483E29483
:1011F00080EFE8220F700E290683108A118A71830E
:10120000608381E0828B82E090E09387828784EF25
:1012100091E09587848717861686C60160E070E0A6
:101220000E948E08F601138AC6010E949C080F9145
:10123000EF90DF90CF900895FF920F931F93CF937D
:10124000DF93EC010E949C0800E010E0FF24F3947F
:1012500072C08091A101EC81FD81E80FF11D8081B8
:1012600060E00E94AB0B8091A001EA81FB81E80F56
:10127000F11D80810E94FF0B6091A2017091A3017A
:10128000680F711D7093A3016093A201882331F44C
:101290008091A101888B8091A001898BA091A001F0
:1012A0004E81842F8F70E82FF0E02A2F30E0CF019D
:1012B000019728173907C9F442954F7050E0809183
:1012C000A10190E09A01215030408217930769F400
:1012D0004E9FC0014F9F900D5E9F900D1124681787
:1012E000790711F4FA8A01C01A8A9A2F9F5F9093A6
:1012F000A0018E818F709817E1F41092A001809167
:10130000A101EC81FD81E80FF11D808161E00E9467
:10131000AB0B9091A1019F5F9093A1018E8182956B
:101320008F70981731F41092A1011092A3011092BE
:10133000A2010F5F1F4F2E81822F8F7022952F7079
:10134000829FC0011124081719070CF482CF8A89E3
:10135000DF91CF911F910F91FF900895CF93DF936D
:10136000EC011B8A0E94CA0A20919C0130919D01C8
:1013700040919E0150919F01621B730B840B950B52
:101380006B3071058105910508F49BC00E94CA0A63
:1013900060939C0170939D0180939E0190939F01A7
:1013A000CE010E941C098F8198858130910509F436
:1013B0003EC0823091051CF4892B49F082C08230F6
:1013C000910509F44FC0039709F07BC075C08A8965
:1013D000882309F076C00E94CA0A209198013091B2
:1013E000990140919A0150919B01621B730B840BF0
:1013F000950B2A853B8540E050E0261737074807C4
:10140000590708F05EC02E8122952F708989829F2E
:10141000C00111242889E881F981E80FF91FE20F42
:10142000F11D80818987CE0161E070E038C00E94A3
:10143000CA0A209198013091990140919A015091E6
:101440009B01621B730B840B950B2C853D8540E043
:1014500050E0261737074807590720F4CE0162E00D
:1014600070E01DC08A89813061F50E94CA0A20910E
:1014700098013091990140919A0150919B01621B12
:10148000730B840B950B2A853B8540E050E02617B3
:10149000370748075907A8F4CE0163E070E00E94BF
:1014A0008E080E94CA0A60939801709399018093F4
:1014B0009A0190939B0105C0CE0160E070E00E940C
:1014C0008E088F819885DF91CF910895CF93DF9318
:1014D000EC010E94AE09019729F48B89882311F051
:1014E000898501C080E0DF91CF9108951F920F920E
:1014F0000FB60F9211242F933F934F935F936F93E7
:101500007F938F939F93AF93BF932091A8013091C6
:10151000A9014091AA015091AB017091AC01DA018F
:10152000C9010296A11DB11D672F6A5F6D3730F0AA
:101530006D57DA01C9010396A11DB11D6093AC017D
:101540008093A8019093A901A093AA01B093AB0145
:101550008091A4019091A501A091A601B091A7014D
:101560000196A11DB11D8093A4019093A501A093A4
:10157000A601B093A701BF91AF919F918F917F91E9
:101580006F915F914F913F912F910F900FBE0F90F0
:101590001F9018958FB7F8942091A8013091A90158
:1015A0004091AA015091AB018FBFB901CA010895C2
:1015B0009B01AC017FB7F8948091A4019091A501A3
:1015C000A091A601B091A70166B5A89B05C06F3F89
:1015D00019F00196A11DB11D7FBFBA2FA92F982F19
:1015E0008827860F911DA11DB11D63E0880F991FEB
:1015F000AA1FBB1F6A95D1F7BC012DC0FFB7F89495
:101600008091A4019091A501A091A601B091A7019C
:10161000E6B5A89B05C0EF3F19F00196A11DB11DCD
:10162000FFBFBA2FA92F982F88278E0F911DA11DBC
:10163000B11DE3E0880F991FAA1FBB1FEA95D1F7E0
:10164000861B970B885E9340C8F221503040404083
:10165000504068517C4F211531054105510571F607
:101660000895789484B5826084BD84B5816084BD1A
:1016700085B5826085BD85B5816085BDEEE6F0E00B
:10168000808181608083E1E8F0E010828081826067
:101690008083808181608083E0E8F0E080818160E8
:1016A0008083E1EBF0E0808184608083E0EBF0E018
:1016B000808181608083EAE7F0E0808184608083BC
:1016C0008081826080838081816080838081806866
:1016D00080831092C1000895CF93DF93482F50E08C
:1016E000CA0186569F4FFC0134914A575F4FFA0159
:1016F0008491882369F190E0880F991FFC01E859D3
:10170000FF4FA591B491FC01EE58FF4FC591D491C4
:10171000662351F42FB7F8948C91932F90958923D9
:101720008C93888189230BC0623061F42FB7F894C1
:101730008C91932F909589238C938881832B888318
:101740002FBF06C09FB7F8948C91832B8C939FBFBB
:10175000DF91CF910895482F50E0CA0182559F4FE5
:10176000FC012491CA0186569F4FFC0194914A576F
:101770005F4FFA013491332309F440C0222351F121
:10178000233071F0243028F42130A1F0223011F5FB
:1017900014C02630B1F02730C1F02430D9F404C091
:1017A000809180008F7703C0809180008F7D80932F
:1017B000800010C084B58F7702C084B58F7D84BD52
:1017C00009C08091B0008F7703C08091B0008F7DF9
:1017D0008093B000E32FF0E0EE0FFF1FEE58FF4FB5
:1017E000A591B4912FB7F894662321F48C9190952C
:1017F000892302C08C91892B8C932FBF0895682F69
:1018000070E0CB0182559F4FFC012491CB0186569D
:101810009F4FFC0144916A577F4FFB01949199239C
:1018200019F420E030E03CC0222351F1233071F064
:10183000243028F42130A1F0223011F514C02630D4
:10184000B1F02730C1F02430D9F404C08091800079
:101850008F7703C0809180008F7D8093800010C0BF
:1018600084B58F7702C084B58F7D84BD09C0809117
:10187000B0008F7703C08091B0008F7D8093B0005F
:10188000892F90E0880F991F84589F4FFC01A591E4
:10189000B4918C9120E030E0842311F021E030E01D
:1018A000C901089508951F920F920FB60F92112447
:1018B0002F933F934F938F939F93EF93FF93809139
:1018C000C00082FD1DC04091C6002091ED01309105
:1018D000EE012F5F3F4F2F7330708091EF01909199
:1018E000F0012817390771F0E091ED01F091EE0158
:1018F000E355FE4F40833093EE012093ED0102C08B
:101900008091C600FF91EF919F918F914F913F91F0
:101910002F910F900FBE0F901F901895E0914102EC
:10192000F0914202E05CFF4F8191919120813181E1
:10193000821B930B8F739070892B11F00E94520CB5
:1019400008951F920F920FB60F9211242F933F9379
:101950008F939F93EF93FF93209131023091320246
:1019600080913302909134022817390731F4809125
:10197000C1008F7D8093C10014C0E0913302F091CB
:101980003402EF50FE4F2081809133029091340257
:1019900001968F739070909334028093330220935A
:1019A000C600FF91EF919F918F913F912F910F90E2
:1019B0000FBE0F901F901895DC011C96ED91FC91C5
:1019C0001D97E05CFF4F2191319180819181281B0F
:1019D000390B2F733070C9010895DC011C96ED910D
:1019E000FC911D97E05CFF4F20813181E054F04075
:1019F000DF01AE5BBF4F8D919C911197281739077E
:101A000019F42FEF3FEF07C08D919C91E80FF91F5C
:101A10008081282F30E0C9010895DC011C96ED91EA
:101A2000FC911D97E05CFF4F20813181E054F04034
:101A3000DF01AE5BBF4F8D919C911197281739073D
:101A400019F42FEF3FEF10C08D919C911197E80F83
:101A5000F91F20818D919C91119701968F73907041
:101A600011969C938E9330E0C9010895DC01919604
:101A70008C919197882339F05496ED91FC9155976C
:101A8000808186FFF9CF91961C920895CF93DF93C2
:101A9000EC01EE85FF85E05CFF4F20813181E05451
:101AA000F0402F5F3F4F2F733070DF01AE5BBF4FB1
:101AB0008D919C91119728173907D1F3E05CFF4F66
:101AC00080819181E054F040E80FF91F6083EE853A
:101AD000FF85E05CFF4F31832083EE89FF89208101
:101AE00081E090E00F8C02C0880F991F0A94E2F702
:101AF000282B208381E089A3EC89FD898081806483
:101B0000808381E090E0DF91CF91089510923802B8
:101B10001092370288EE93E0A0E0B0E080933902A3
:101B200090933A02A0933B02B0933C0281E491E08F
:101B300090933602809335028DEA91E090934202B1
:101B40008093410281EF91E090934402809343029D
:101B500085EC90E0909346028093450284EC90E0FF
:101B6000909348028093470280EC90E090934A0261
:101B70008093490281EC90E090934C0280934B0259
:101B800082EC90E090934E0280934D0286EC90E0C0
:101B90009093500280934F0284E08093510283E03F
:101BA0008093520287E08093530285E08093540231
:101BB00081E0809355020895CF93DF930E94310B0B
:101BC0000E94F907CEE8DCE00E941B062097E1F3B3
:101BD0000E948E0CF9CFCF92DF92EF92FF920F937B
:101BE0001F93CF93DF937C016B018A01C0E0D0E0AB
:101BF0000FC0D6016D916D01D701ED91FC9101905F
:101C0000F081E02DC7010995C80FD91F0150104080
:101C10000115110571F7CE01DF91CF911F910F9141
:101C2000FF90EF90DF90CF900895EF92FF920F9387
:101C30001F938C01DC01ED91FC910190F081E02D6E
:101C40006DE009957C01D801ED91FC910190F08146
:101C5000E02DC8016AE009959C012E0D3F1DC901C8
:101C60001F910F91FF90EF900895CF93DF93EC01B8
:101C70006115710519F420E030E00FC0DB010D9013
:101C80000020E9F71197A61BB70BE881F9810280C4
:101C9000F381E02DAD0109959C01C901DF91CF9140
:101CA0000895EF92FF920F931F937C010E94350ECF
:101CB0008C01C7010E94150E080F191FC8011F9142
:101CC0000F91FF90EF9008950F931F93CF93DF93A1
:101CD000FC018B0141155105F9F061157105E1F029
:101CE000848195812817390718F0FB01108214C0F0
:101CF00041505040EC01C21BD30B4C175D0708F458
:101D0000EA0160817181620F731FC801AE010E94F8
:101D1000A002C00FD11F1882DF91CF911F910F91A8
:101D20000895DC01FB0114968D919C911597892BE8
:101D300031F461157105A9F090E0808108C00D9023
:101D4000BC91A02D6115710529F490E08C91882338
:101D500049F407C0CD010E9490029C0190E0232B22
:101D600009F491E0892F08950F931F93CF93DF9388
:101D7000EC018B016F5F7F4F888199810E94AE01DA
:101D8000009711F480E005C0998388831B830A8340
:101D900081E0DF91CF911F910F910895CF93DF9351
:101DA000EC0188819981892B29F08A819B81861792
:101DB000970760F4CE010E94B40E882341F08C8115
:101DC0009D81892B19F4E881F981108281E0DF91EE
:101DD000CF910895EF92FF920F931F93CF93DF93CC
:101DE000EC017B016C817D81E114F104C1F04115AE
:101DF000510599F08A01060F171FB8010E94CE0EF7
:101E0000882369F0888199812C813D81820F931FFD
:101E1000B7010E9499021D830C8381E001C080E01C
:101E2000DF91CF911F910F91FF90EF900895DF9375
:101E3000CF9300D0CDB7DEB769831A82BE016F5F42
:101E40007F4F41E050E00E94EA0E0F900F90CF913B
:101E5000DF910895CF93DF93EC01888199810097FA
:101E600011F00E945601198218821D821C821B8269
:101E70001A82DF91CF9108950F931F93182F092F86
:101E80000E94170F882321F4812F902F0E942A0F80
:101E9000812F902F1F910F910895EF92FF920F9332
:101EA0001F93CF93DF93EC017B018A01BA010E945B
:101EB000CE0E882321F4CE010E942A0F07C01D8375
:101EC0000C8388819981B7010E949902CE01DF912C
:101ED000CF911F910F91FF90EF900895CF93DF93D3
:101EE000EC01198218821B821A821D821C821E82BA
:101EF0006115710551F0DB010D900020E9F7119794
:101F0000A61BB70BAD010E944D0FDF91CF91089535
:101F10000F931F93182F092F6115710559F0DB01DD
:101F20000D900020E9F71197A61BB70BAD010E9499
:101F30004D0F02C00E942A0F812F902F1F910F91E9
:101F40000895CF93DF93EC01FB018617970761F0AB
:101F5000608171816115710529F0448155810E946C
:101F60004D0F02C00E942A0FCE01DF91CF9108953C
:101F7000FC01118210821382128215821482168251
:101F80000E94A10F0895FC01808191810E94560159
:101F90000895FC01808191810E9456010895505856
:101FA000BB27AA270ED0DCC0CDD030F0D2D020F095
:101FB00031F49F3F11F41EF4C2C00EF4E095E7FB2C
:101FC000B8C0E92FDED080F3BA1762077307840721
:101FD000950718F071F49EF5F6C00EF4E0950B2EFF
:101FE000BA2FA02D0B01B90190010C01CA01A0016B
:101FF0001124FF27591B99F0593F50F4503E68F1C6
:102000001A16F040A22F232F342F4427585FF3CF06
:10201000469537952795A795F0405395C9F77EF4D7
:102020001F16BA0B620B730B840BBAF09150A1F020
:10203000FF0FBB1F661F771F881FC2F70EC0BA0FA6
:10204000621F731F841F48F4879577956795B7952E
:10205000F7959E3F08F0B3CF9395880F08F0992726
:10206000EE0F97958795089540D008F481E0089584
:10207000E89409C097FB3EF4909580957095619522
:102080007F4F8F4F9F4F9923A9F0F92F96E9BB27D8
:102090009395F695879577956795B795F111F8CF54
:1020A000FAF4BB0F11F460FF1BC06F5F7F4F8F4FBF
:1020B0009F4F16C0882311F096E911C0772321F0B5
:1020C0009EE8872F762F05C0662371F096E8862F4D
:1020D00070E060E02AF09A95660F771F881FDAF7A4
:1020E000880F9695879597F90895990F0008550FD1
:1020F000AA0BE0E8FEEF16161706E807F907C0F08E
:1021000012161306E407F50798F0621B730B840B95
:10211000950B39F40A2661F0232B242B252B21F46F
:1021200008950A2609F4A140A6958FEF811D811D0F
:10213000089597F99F6780E870E060E008959FEF49
:1021400080EC089500240A9416161706180609064E
:10215000089500240A94121613061406050608951D
:10216000092E0394000C11F4882352F0BB0F40F4A5
:10217000BF2B11F460FF04C06F5F7F4F8F4F9F4FE5
:10218000089557FD9058440F551F59F05F3F71F067
:102190004795880F97FB991F61F09F3F79F08795CE
:1021A0000895121613061406551FF2CF4695F1DF57
:1021B00008C0161617061806991FF1CF86957105E7
:1021C000610508940895E894BB2766277727CB011B
:1021D00097F908958ADF08F48FEF08950BD0C0CFE8
:1021E000B1DF28F0B6DF18F0952309F0A2CFA7CF12
:1021F0001124EACFC6DFA0F3959FD1F3950F50E0ED
:10220000551F629FF001729FBB27F00DB11D639FA8
:10221000AA27F00DB11DAA1F649F6627B00DA11D4E
:10222000661F829F2227B00DA11D621F739FB00DF4
:10223000A11D621F839FA00D611D221F749F332764
:10224000A00D611D231F849F600D211D822F762FFD
:102250006A2F11249F5750408AF0E1F088234AF0FA
:10226000EE0FFF1FBB1F661F771F881F9150504046
:10227000A9F79E3F510570F05CCFA6CF5F3FECF30E
:10228000983EDCF3869577956795B795F795E79532
:102290009F5FC1F7FE2B880F911D9695879597F943
:1022A0000895EE0FFF1F0590F491E02D0994911110
:1022B00006C0803219F089508550D0F708959927CB
:1022C000882708952F923F924F925F926F927F924C
:1022D0008F929F92AF92BF92CF92DF92EF92FF9236
:1022E0000F931F93CF93DF93CDB7DEB7CA1BDB0BE2
:1022F0000FB6F894DEBF0FBECDBF09942A88398887
:1023000048885F846E847D848C849B84AA84B9848D
:10231000C884DF80EE80FD800C811B81AA81B98199
:10232000CE0FD11D0FB6F894DEBF0FBECDBFED01AD
:10233000089511E0C2E0D1E004C0FE010E945311F3
:0C2340002296C430D107C9F7F894FFCFF3
:10234C00000A636C65617265640A0A0A00202B201E
:10235C0000202D20004552524F520020005D0200FB
:10236C00003738392B3435362D3132333F43302E4C
:10237C003D0203040506070809B80B000000000025
:0E238C0000460DEB0DDC0C0D0DED0C360D00BA
:00000001FF
