:100000000C9482000C94AA000C94AA000C94AA00F0
:100010000C94AA000C94AA000C94AA000C94AA00B8
:100020000C94AA000C94AA000C94AA000C94AA00A8
:100030000C94AA000C94AA000C94AA000C94AA0098
:100040000C94F60B0C94AA000C94C70D0C94150E8E
:100050000C94AA000C94AA000C94AA000C94AA0078
:100060000C94AA000C94AA000000000024002700B1
:100070002A0000000000250028002B0000000000DE
:1000800023002600290004040404040404040202DA
:100090000202020203030303030301020408102007
:1000A0004080010204081020010204081020000012
:1000B0000007000201000003040600000000000029
:1000C0000000494E46494E4954594E414ECDCCCC84
:1000D0003D0AD7233C17B7D13877CC2B329595E61C
:1000E000241FB14F0A000020410000C84200401CFC
:1000F0004620BCBE4CCA1B0E5AAEC59D740074048B
:10010000FA0E6D0411241FBECFEFD8E0DEBFCDBFC5
:1001100011E0A0E0B1E0E4E3F6E202C005900D9248
:10012000A835B107D9F712E0A8E5B1E001C01D92EA
:10013000AF39B107E1F710E0C2E0D1E004C0229787
:10014000FE010E94C712CE3FD107C9F70E94500F8F
:100150000C940D130C940000CF93DF93BC018230FC
:10016000910510F462E070E0A0919B02B0919C02B6
:10017000ED01E0E0F0E040E050E021C088819981AD
:100180008617970769F48A819B81309719F09383CA
:10019000828304C090939C0280939B02FE0134C032
:1001A0006817790738F44115510519F08417950738
:1001B00008F4AC01FE018A819B819C01E901209732
:1001C000E9F641155105A9F1CA01861B970B049761
:1001D00008F4BA01E0E0F0E02AC08D919C911197FB
:1001E00084179507F9F46417750781F412968D91B9
:1001F0009C911397309719F09383828304C0909356
:100200009C0280939B02FD0132964CC0CA01861B62
:10021000970BFD01E80FF91F6193719302978D937E
:100220009C9340C0FD01828193819C01D90110976C
:10023000A1F68091990290919A02892B41F48091C4
:100240001D0190911E0190939A0280939902409112
:100250001F01509120014115510541F44DB75EB782
:1002600080911B0190911C01481B590B2091990210
:1002700030919A02CA01821B930B8617970780F070
:10028000AB014E5F5F4F8417950750F0420F531F2D
:1002900050939A0240939902F9016193719302C0BD
:1002A000E0E0F0E0CF01DF91CF910895CF93DF93AD
:1002B000009709F450C0EC0122971B821A82A0918A
:1002C0009B02B0919C02109709F140E050E0AC17FE
:1002D000BD0708F1BB83AA83FE0121913191E20F92
:1002E000F31FAE17BF0779F48D919C911197280FDA
:1002F000391F2E5F3F4F3983288312968D919C9131
:1003000013979B838A834115510571F4D0939C0206
:10031000C0939B0220C012968D919C911397AD01C2
:10032000009711F0DC01D3CFFA01D383C28321916E
:100330003191E20FF31FCE17DF0769F488819981AD
:10034000280F391F2E5F3F4FFA01318320838A81A6
:100350009B8193838283DF91CF910895A0E0B0E0E9
:10036000E4EBF1E00C94D8126C01009729F4CB0176
:100370000E94AC006C01C1C08EEF882E8FEF982ECA
:100380008C0C9D1C8601060F171F0815190508F413
:10039000B2C0F401A081B181A617B707B8F0A530AB
:1003A000B10508F4AAC0CD0104978617970708F491
:1003B000A4C01297A61BB70BF801A193B193D40167
:1003C0006D937C93CF010E94560197C07B01EA1A7E
:1003D000FB0AEEEFFFEFEE0EFF1E36016A0E7B1EEC
:1003E000C0919B02D0919C0244245524AA24BB2492
:1003F0004AC0C615D705E1F5488159814E155F05FC
:10040000B8F1CA0104978E159F05B0F41296A40F97
:10041000B51FF401B183A0832A813B8141145104AB
:1004200031F0D20113963C932E93129766C030930D
:100430009C0220939B0261C08A819B81F801938377
:100440008283425050404E195F09518340834114CA
:10045000510431F0D20113961C930E93129704C0ED
:1004600010939C0200939B02F4017183608345C04A
:1004700088819981A816B90608F45C012E018A8149
:100480009B819C01E901209709F0B3CF80919902EB
:1004900090919A0286159705E9F4A616B706D0F44E
:1004A00020911F01309120012115310541F42DB714
:1004B0003EB780911B0190911C01281B390B02173C
:1004C0001307C8F410939A0200939902D4016D9314
:1004D0007C9313C0CB010E94AC00EC01009759F053
:1004E000F40140815181B6010E948702C6010E9439
:1004F00056016E0102C0CC24DD24C601CDB7DEB7A3
:10050000E0E10C94F412662777270C94AF02FB010C
:10051000DC0102C001900D9241505040D8F708957F
:10052000FB01DC018D91019080190110D9F3990B29
:100530000895FB01DC0101900D920020E1F7089580
:10054000FB01DC014150504048F001900D92002029
:10055000C9F701C01D9241505040E0F70895A0E056
:10056000B0E0E5EBF2E00C94DC12EC015B0161150C
:10057000710519F0FB0191838083F9908F2D90E034
:100580000E94CB12892BC9F7FDE2FF1621F4F990E6
:10059000EE24E39405C02BE2F21609F4F990EE2460
:1005A0008E0101501040C80162EC70E043E050E061
:1005B0000E940F04892B01F58E010E5F1F4FC801A9
:1005C00065EC70E045E050E00E940F04892B19F4BF
:1005D0008E01095F1F4FA114B10419F0F5011183B9
:1005E0000083E0FC04C070E090E080E814C070E09C
:1005F00090E080E86FEF08C1C8016AEC70E043E06A
:1006000050E00E940F04892B69F4A114B10429F46D
:1006100070E090E080EC6FE7F7C02296F501D1839F
:10062000C083F6CF8824992440E050E060E070E079
:10063000EF2DE053EA30A0F5F2E0EF2A8E2D90E0A6
:100640009C0128703070E2FE06C0232B79F50894D7
:10065000811C911C2BC0232B19F008948108910850
:10066000DB01CA0112E0880F991FAA1FBB1F1A9550
:10067000D1F7480F591F6A1F7B1F440F551F661F74
:10068000771F4E0F511D611D711D483929E9520711
:1006900029E9620729E1720748F084E0E82A06C0E8
:1006A000EE3F31F4E3FC39C098E0E92AF990C0CF7D
:1006B000E53311F0E53189F529912D3219F4E0E1A6
:1006C000EE2A05C02B3219F081E090E003C0299199
:1006D00082E090E0E22FE053EA3018F0C81BD90B1B
:1006E0001CC020E030E0FCE020383F075CF4C9018A
:1006F000880F991F880F991F280F391F220F331F4A
:100700002E0F311DE991E053EA3068F3E4FE03C097
:10071000309521953F4F820E931ECE2CDD24E1FEB5
:1007200007C0A114B10421F02197F501D183C08342
:10073000CB01BA010E94AC117B018C01F3E0CF2206
:10074000DD2423E0C216D10421F417FB109517F91C
:10075000109557016801C801B70120E030E040E082
:1007600050E00E94A811882309F44AC097FE0DC0EA
:1007700021EEE22E20E0F22E909481949108939441
:10078000C0E2D0E000E010E012C099EFE92E90E066
:10079000F92EF6CFF7012591359145915491C60177
:1007A000B5010E9462125B016C018C1A9D0A8C16C5
:1007B0009D0684F7D595C7950F5F1F4F063011052D
:1007C00029F08CEF9FEFE80EF91EF1CFC501D6019D
:1007D0007C018D018C2D880F8D2D881F8F3F51F04E
:1007E000C601B50120E030E040E050E00E94A811D1
:1007F000882331F482E290E090939E0280939D02E0
:100800007E2D9F2D802F612F272F392F482F562F78
:10081000B901CA01CDB7DEB7ECE00C94F812FB01C8
:10082000DC014150504088F08D9181341CF08B35B3
:100830000CF4805E659161341CF06B350CF4605EE5
:10084000861B611171F3990B0895881BFCCFEF9201
:100850000F938130910549F56F5F7F4FD9F588E59A
:1008600091E061E271E041E351E025E331E004E031
:10087000E4E0EE2E0E94800B8AEC91E060E071E0F3
:100880000E94E21081ED91E060E071E00E94E210D0
:1008900088ED91E060E071E00E94E2108FED91E060
:1008A00060E071E00E94E21015C0892B99F46F5F3F
:1008B0007F4F81F48FED91E00E94371188ED91E038
:1008C0000E94371181ED91E00E9437118AEC91E08E
:1008D0000E9437110F91EF90089580E090E06FEF44
:1008E0007FEF0E942704089581E090E06FEF7FEF93
:1008F0000E9427040895CF93DF93C0E0D0E08BE0FF
:1009000061E00E941F0D8AE061E00E941F0D62E31A
:1009100070E080E090E00E944C0C8BE060E00E9470
:100920001F0D8AE060E00E941F0D62E370E080E02E
:1009300090E00E944C0C2196C530D10501F7DF9163
:10094000CF910895CF93DF93C0E0D0E08BE060E0DB
:100950000E941F0D8AE061E00E941F0D62E370E0BB
:1009600080E090E00E944C0C8BE060E00E941F0D44
:100970008AE060E00E941F0D62E370E080E090E09A
:100980000E944C0C2196CA30D10501F7DF91CF911E
:1009900008950F931F9387E792E061E071E00E9452
:1009A000C50F00E011E08AEC91E0B8010E94FC1054
:1009B00081ED91E0B8010E94FC1088ED91E0B80152
:1009C0000E94FC108FED91E0B8010E94FC1080E0C5
:1009D00090E0A0E0B0E08093B4019093B501A093C3
:1009E000B601B093B7018093B8019093B901A09379
:1009F000BA01B093BB018093BC019093BD01A09359
:100A0000BE01B093BF011092C5011092C401809342
:100A1000C0019093C101A093C201B093C301109291
:100A2000C7011092C6011092C9011092C8011F910E
:100A30000F910895CF92DF92EF92FF920F931F9341
:100A4000DF93CF93CDB7DEB7C659D0400FB6F89439
:100A5000DEBF0FBECDBF8AEC91E06E010894C11CD1
:100A6000D11CB60142E350E020E030E00E94D80FF4
:100A7000F3E3EF2EF12CEC0EFD1E81ED91E0B701BA
:100A800042E350E020E030E00E94D80F8E010B5985
:100A90001F4F8FED91E0B80142E350E020E030E0DD
:100AA0000E94D80FC6010E9483026093B401709324
:100AB000B5018093B6019093B701C7010E948302EC
:100AC0006093B8017093B9018093BA019093BB0110
:100AD000C8010E9483026093C0017093C10180939A
:100AE000C2019093C3018091C6019091C701019703
:100AF00001F56091B4017091B5018091B6019091BA
:100B0000B7012091B8013091B9014091BA015091DB
:100B1000BB010E9444116093BC017093BD0180939E
:100B2000BE019093BF0188ED91E06DE071E00E94FD
:100B3000FC108091C6019091C701029701F5609168
:100B4000B4017091B5018091B6019091B7012091E7
:100B5000B8013091B9014091BA015091BB010E9496
:100B600043116093BC017093BD018093BE019093CB
:100B7000BF0188ED91E061E171E00E94FC1060919D
:100B8000C0017091C1018091C2019091C301209177
:100B9000BC013091BD014091BE015091BF010E9446
:100BA00043117B018C0120E030E040E050E00E94E6
:100BB0005E1218165CF4C801B7012DEB37E346E866
:100BC00055E30E94A811882394F40AC0C801B70114
:100BD0002DEB37E346E855EB0E945E1218163CF405
:100BE0008BE061E00E941F0D8AE060E006C08BE0B0
:100BF00060E00E941F0D8AE061E00E941F0D0E94CC
:100C00003E0C6093B0017093B1018093B201909358
:100C1000B3010E94C904CA56DF4F0FB6F894DEBF75
:100C20000FBECDBFCF91DF911F910F91FF90EF903D
:100C3000DF90CF900895FF920F931F93DF93CF9390
:100C4000CDB7DEB7C455D0400FB6F894DEBF0FBEA7
:100C5000CDBF0E943E0C2091B0013091B101409176
:100C6000B2015091B301621B730B840B950B209161
:100C7000390130913A0140913B0150913C012617D6
:100C800037074807590740F48BE060E00E941F0DCA
:100C90008AE060E00E941F0D88E591E00E946C0BE5
:100CA000F82E8DE3F81619F18F156CF08DE2F81619
:100CB00009F459C08EE2F81609F4BEC08BE2F816AA
:100CC00009F019C130C08FE3F81639F083E4F81643
:100CD00009F011C10E947B040BC18091C801909161
:100CE000C901039709F0FCC00E941A0575C18091E3
:100CF000C8019091C901029709F0F2C01092C50194
:100D00001092C40183E090E09093C9018093C801E0
:100D10008E010F5F1F4FC80168ED71E00E942C111A
:100D2000C8016DE358C08091C6019091C701892B1D
:100D300009F0D6C01092C5011092C40181E090E084
:100D40009093C7018093C6019093C9018093C80115
:100D50008E01085F1F4FC80168ED71E00E942C11E1
:100D6000C8016BE238C08091C6019091C701892B00
:100D7000C1F58AEC91E060E071E00E9405108823E3
:100D800081F08E01015F1F4FC8016AEC71E00E9483
:100D90002C11C8016DE20E94B010BC018AEC91E0F8
:100DA0000BC11092C5011092C40182E090E09093B3
:100DB000C7018093C60181E090E09093C9018093C0
:100DC000C8018E010A5E1F4FC80168ED71E00E94E4
:100DD0002C11C8016DE20E94B010BC0188ED91E0B9
:100DE000EBC08091C8019091C901039709F0EAC056
:100DF0008FED91E060E071E00E940510882309F416
:100E0000E1C08E01035E1F4FC8016FED71E00E94CB
:100E10002C11C8016DE2CBC08E010C5D1F4FC801C3
:100E200061ED71E00E942C11C8016DE20E94B010CA
:100E3000BC0181ED91E0C0C08091C4019091C501D9
:100E4000892B09F04DC081E090E09093C50180931B
:100E5000C4018091C8019091C901892BA1F48E0130
:100E6000055D1F4FC8016AEC71E00E942C11C8019A
:100E70006EE20E94B010BC018AEC91E00E94151154
:100E8000C8010E943D118091C8019091C90101974C
:100E90000297A0F48E010E5C1F4FC80161ED71E056
:100EA0000E942C11C8016EE20E94B010BC0181EDBD
:100EB00091E00E941511C8010E943D118091C80166
:100EC0009091C901039709F087C08E01075C1F4FFD
:100ED000C8016FED71E00E942C11C8016EE267C07D
:100EE00088ED91E065E171E00E94FC100E94A2048F
:100EF0000E94C90471C0FF2009F46EC08BE060E05D
:100F00000E941F0D8AE060E00E941F0D8091C601C3
:100F10009091C701892BA1F48E01005C1F4FC8017D
:100F20006AEC71E00E942C11C8016F2D0E94B01074
:100F3000BC018AEC91E00E941511C8010E943D118C
:100F40008091C6019091C7010197029700F58091A9
:100F5000C8019091C9010397D1F08E01095B1F4F21
:100F6000C80161ED71E00E942C11C8016F2D0E9433
:100F7000B010BC0181ED91E00E941511C8010E94E2
:100F80003D1182E090E09093C9018093C801809167
:100F9000C8019091C9010397F9F48E01025B1F4FBC
:100FA000C8016FED71E00E942C11C8016F2D0E94E5
:100FB000B010BC018FED91E00E941511C8010E9494
:100FC0003D110AC081ED91E060E071E00E940510E2
:100FD000882309F021CF84CFCC5ADF4F0FB6F89485
:100FE000DEBF0FBECDBFCF91DF911F910F91FF905C
:100FF0000895EF92FF920F931F93DF93CF93CDB796
:10100000DEB76C970FB6F894DEBF0FBECDBF8BE096
:1010100061E00E94E00C8AE061E00E94E00CA0E048
:10102000EA2EA1E0FA2E8E010F5F1F4FC801B70113
:101030000E94E2108AEC91E0B8010E941511C801EB
:101040000E9437118E01085F1F4FC801B7010E942F
:10105000E21081ED91E0B8010E941511C8010E94D3
:1010600037118E01015F1F4FC801B7010E94E210C6
:1010700088ED91E0B8010E941511C8010E94371156
:101080008E010A5E1F4FC801B7010E94E2108FED6A
:1010900091E0B8010E941511C8010E94371180E04B
:1010A00090E0A0E0B0E08093B4019093B501A093EC
:1010B000B601B093B7018093B8019093B901A093A2
:1010C000BA01B093BB018093BC019093BD01A09382
:1010D000BE01B093BF018093C0019093C101A09362
:1010E000C201B093C3011092C5011092C4011092C5
:1010F000C7011092C6011092C9011092C8010E9446
:101100007B046C960FB6F894DEBF0FBECDBFCF91B7
:10111000DF911F910F91FF90EF900895DC01E62F72
:10112000F0E0EE0FFF1FEE0FFF1FEA0FFB1F548FC3
:10113000438F81E0858FAA5ABF4FED91FC911197A3
:10114000A655B040309719F05A968C91099508959C
:10115000AF92BF92CF92DF92EF92FF920F93DF9305
:10116000CF9300D0CDB7DEB75C0100E021E5C22E01
:10117000D12CC80ED91E9EE4E92EF12CEA0CFB1CE2
:1011800029C0802F90E09A838983D5012D913C91CD
:10119000D701ED91FC91E80FF91FD9012D913C91F8
:1011A000C501608140E0F9010995F5012081318197
:1011B000D701ED91FC9189819A81E80FF91FD9013E
:1011C00012962D913C911397C501608141E0F90180
:1011D00009950F5FF6018081081798F20F900F9024
:1011E000CF91DF910F91FF90EF90DF90CF90BF9064
:1011F000AF9008950F931F93CF93DF93EC01162FB9
:10120000042FE62FF0E0EE0FFF1FEE0FFF1FE80F99
:10121000F91F158E838D948D81309105E1F0823018
:1012200091051CF4892B39F03FC08230910581F182
:101230000397D1F534C04130B9F5CE0141E050E01B
:101240000E948E080E943E0CCE5BDF4F688379833C
:101250008A839B8329C00E943E0CCE5BDF4F28818E
:1012600039814A815B81621B730B840B950B6296FB
:1012700028813981C455D04040E050E02617370717
:101280004807590728F4CE01612F42E050E00AC018
:10129000002351F4CE01612F43E050E003C0CE01A2
:1012A00040E050E00E948E08DF91CF911F910F9196
:1012B00008954F925F926F927F928F929F92AF921A
:1012C000BF92CF92DF92EF92FF920F931F93CF9333
:1012D000DF93EC012C01FC0120E0838D948D892BA0
:1012E00011F4128E158E2F5F34962A30B1F7EE244A
:1012F000A0E56A2E712C6C0E7D1EF1E58F2E912CCF
:101300008C0E9D1EEAE4AE2EB12CAC0EBD1E50C05C
:101310002F2D30E0D8018D919C910F2C02C0969515
:1013200087950A94E2F7482F4170852F90E0FC01E1
:10133000CE9EC001CF9E900DDE9E900D1124D50152
:10134000ED91FC91E20FF31FE80FF91F5081F201BC
:1013500060E070E0828D851711F4CE0119C06F5FD7
:101360007F4F34966A307105A9F731C0F20160E011
:1013700070E0828D882379F4FB01EE0FFF1FEE0FE2
:10138000FF1FEC0FFD1F528F148E138ECE0141E014
:101390000E94FA0806C06F5F7F4F34966A3071056D
:1013A00041F7F394F4015081F51608F4B1CFE394BA
:1013B000D3018C91E81670F4FF24CE2CDD24860135
:1013C0000D5F1F4F000F111F0C0F1D1FEBCF44238C
:1013D00069F6E7CFDF91CF911F910F91FF90EF90CA
:1013E000DF90CF90BF90AF909F908F907F906F9045
:1013F0005F904F9008953F924F925F926F927F92CD
:101400008F929F92AF92BF92CF92DF92EF92FF9214
:101410000F931F93DF93CF93CDB7DEB728970FB607
:10142000F894DEBF0FBECDBF98878F830E943E0C1D
:101430002F8138852A5B3F4FD9012D913D914D91E8
:101440005C911397621B730B840B950B1C962D916B
:101450003C911197A255B040B887AF8340E050E06F
:10146000261737074807590710F033241AC1FF24FD
:1014700030E5A32EB12CEF81F885AE0EBF1E2CE413
:10148000C22ED12CCE0EDF1E29C00F2D10E0AF8151
:10149000B8858D919C91D601ED91FC91E00FF11FE3
:1014A000DC012D913C918F819885608142E0F901AA
:1014B0000995EF81F88580819181D601ED91FC91AC
:1014C000E00FF11FDC0112962D913C9113978F8153
:1014D0009885608141E0F9010995F394F5018081D7
:1014E000F81698F23324EE242F8138852F5A3F4F77
:1014F0003A8329839EE4A92EB12C4F815885A40EEE
:10150000B51E405B5F4F5C834B838F819885845B06
:101510009F4F9E838D83AFC0CE2CDD24AF81B885D5
:101520008D919C91D501ED91FC91EC0DFD1DDC019F
:101530002D913C918F819885608141E0F901099559
:10154000EF81F88580819181D501ED91FC91EC0DC1
:10155000FD1DDC0112962D913C9113978F8198858A
:10156000608140E0F901099581E090E0A0E0B0E001
:101570000E2C04C0880F991FAA1FBB1F0A94D2F714
:101580004C012C014094509481E0682E712C0E2C5B
:1015900002C0660C771C0A94E2F7FF243FC00F2DAF
:1015A00010E0AD81BE81ED91FC91E00FF11FD901FA
:1015B00014962D913C9115978F8198856081F90142
:1015C0000995F8013396892B59F4EE0FFF1F2F81EF
:1015D0003885E20FF31F80819181882999290AC0FB
:1015E000EE0FFF1F4F815885E40FF51F8081918119
:1015F0008421952191838083EF2DF0E03396EE0FC7
:10160000FF1F8F819885E80FF91F808191818621C6
:101610009721892B11F033243394F394AB81BC814F
:101620008C91EF81F88520813181F81608F4B7CFCD
:10163000D501ED91FC91EC0DFD1DD90112962D9176
:101640003C9113978F819885608141E0F90109955C
:10165000EF81F88580819181D501ED91FC91EC0DB0
:10166000FD1DDC012D913C918F819885608140E0CA
:10167000F9010995E394E981FA818081E81608F47B
:101680004BCF8F8198850E9459090E943E0C2F8173
:1016900038852A5B3F4FD9016D937D938D939C9341
:1016A0001397832D311081E028960FB6F894DEBF92
:1016B0000FBECDBFCF91DF911F910F91FF90EF90A3
:1016C000DF90CF90BF90AF909F908F907F906F9062
:1016D0005F904F903F900895CF93DF93EC010E946D
:1016E000FB09882349F08B8D9C8D019729F48D8D02
:1016F000882311F08A8D01C080E0DF91CF91089599
:101700006F927F928F929F92AF92BF92CF92DF9211
:10171000EF92FF920F931F93CF93DF93EC014B0156
:101720006A015901702E6E2C02960E94EA0B81E428
:1017300091E0998388834AE1E42EF12CEC0EFD1EA2
:1017400000E010E0C701800F911F0E94F00B0C5FBA
:101750001F4F08321105B1F7C45BDF4FC992D99210
:10176000A992B9927992688227979982888228965D
:101770008AE090E08993999384EF91E0899399931B
:1017800019821882C655D040CE010E94A808CA5BB3
:10179000DF4F188219821A821B82DF91CF911F912D
:1017A0000F91FF90EF90DF90CF90BF90AF909F9000
:1017B0008F907F906F900895862F0E94730D0895EB
:1017C000862F642F0E941F0D0895862F642F0E947C
:1017D000E00C0895FC011082128211821382089598
:1017E000FC01108212821182138208951F920F92BF
:1017F0000FB60F9211242F933F938F939F93AF9324
:10180000BF938091EA019091EB01A091EC01B0911E
:10181000ED013091EE010196A11DB11D232F2D5F29
:101820002D3720F02D570196A11DB11D2093EE01FB
:101830008093EA019093EB01A093EC01B093ED014A
:101840008091E6019091E701A091E801B091E90152
:101850000196A11DB11D8093E6019093E701A0932D
:10186000E801B093E901BF91AF919F918F913F91B2
:101870002F910F900FBE0F901F9018958FB7F8946F
:101880002091EA013091EB014091EC015091ED0182
:101890008FBFB901CA0108959B01AC017FB7F894CD
:1018A0008091E6019091E701A091E801B091E901F2
:1018B00066B5A89B05C06F3F19F00196A11DB11D2B
:1018C0007FBFBA2FA92F982F8827860F911DA11DA2
:1018D000B11D62E0880F991FAA1FBB1F6A95D1F73F
:1018E000BC012DC0FFB7F8948091E6019091E7010B
:1018F000A091E801B091E901E6B5A89B05C0EF3FD2
:1019000019F00196A11DB11DFFBFBA2FA92F982F65
:1019100088278E0F911DA11DB11DE2E0880F991F30
:10192000AA1FBB1FEA95D1F7861B970B885E9340D1
:10193000C8F2215030404040504068517C4F211542
:1019400031054105510571F60895789484B582609A
:1019500084BD84B5816084BD85B5826085BD85B553
:10196000816085BDEEE6F0E0808181608083E1E802
:10197000F0E010828081826080838081816080833A
:10198000E0E8F0E0808181608083E1EBF0E080813D
:1019900084608083E0EBF0E0808181608083EAE70F
:1019A000F0E0808184608083808182608083808198
:1019B000816080838081806880831092C100089557
:1019C000CF93DF93482F50E0CA0186569F4FFC010A
:1019D00034914A575F4FFA018491882369F190E06E
:1019E000880F991FFC01E859FF4FA591B491FC01A4
:1019F000EE58FF4FC591D491662351F42FB7F89458
:101A00008C91932F909589238C93888189230BC087
:101A1000623061F42FB7F8948C91932F90958923BD
:101A20008C938881832B88832FBF06C09FB7F8943F
:101A30008C91832B8C939FBFDF91CF910895482F7A
:101A400050E0CA0182559F4FFC012491CA0186567D
:101A50009F4FFC0194914A575F4FFA013491332311
:101A600009F440C0222351F1233071F0243028F4CE
:101A70002130A1F0223011F514C02630B1F027300A
:101A8000C1F02430D9F404C0809180008F7703C066
:101A9000809180008F7D8093800010C084B58F7707
:101AA00002C084B58F7D84BD09C08091B0008F775E
:101AB00003C08091B0008F7D8093B000E32FF0E0F1
:101AC000EE0FFF1FEE58FF4FA591B4912FB7F8947A
:101AD000662321F48C919095892302C08C91892BE7
:101AE0008C932FBF0895682F70E0CB0182559F4FD4
:101AF000FC012491CB0186569F4FFC0144916A570B
:101B00007F4FFB019491992319F420E030E03CC011
:101B1000222351F1233071F0243028F42130A1F038
:101B2000223011F514C02630B1F02730C1F0243036
:101B3000D9F404C0809180008F7703C08091800029
:101B40008F7D8093800010C084B58F7702C084B5EC
:101B50008F7D84BD09C08091B0008F7703C08091D4
:101B6000B0008F7D8093B000892F90E0880F991F7F
:101B700084589F4FFC01A591B4918C9120E030E0F6
:101B8000842311F021E030E0C901089508951F92E7
:101B90000F920FB60F9211242F933F934F938F9371
:101BA0009F93EF93FF938091C00082FD1DC04091F1
:101BB000C60020912F02309130022F5F3F4F2F73CC
:101BC000307080913102909132022817390771F0FC
:101BD000E0912F02F0913002E151FE4F40833093AB
:101BE000300220932F0202C08091C600FF91EF9136
:101BF0009F918F914F913F912F910F900FBE0F901A
:101C00001F901895E0918302F0918402E05CFF4FF1
:101C10008191919120813181821B930B8F73907000
:101C2000892B11F00E94C60D08951F920F920FB6D6
:101C30000F9211242F933F938F939F93EF93FF93D2
:101C40002091730230917402809175029091760216
:101C50002817390731F48091C1008F7D8093C1002E
:101C600014C0E0917502F0917602ED5CFD4F208189
:101C7000809175029091760201968F739070909387
:101C80007602809375022093C600FF91EF919F9199
:101C90008F913F912F910F900FBE0F901F9018952D
:101CA000DC011C96ED91FC911D97E05CFF4F2191AA
:101CB000319180819181281B390B2F733070C901BC
:101CC0000895DC011C96ED91FC911D97E05CFF4F9F
:101CD00020813181E054F040DF01AE5BBF4F8D9138
:101CE0009C9111972817390719F42FEF3FEF07C080
:101CF0008D919C91E80FF91F8081282F30E0C90158
:101D00000895DC011C96ED91FC911D97E05CFF4F5E
:101D100020813181E054F040DF01AE5BBF4F8D91F7
:101D20009C9111972817390719F42FEF3FEF10C036
:101D30008D919C911197E80FF91F20818D919C91B5
:101D4000119701968F73907011969C938E9330E04B
:101D5000C9010895DC0191968C919197882339F0FF
:101D60005496ED91FC915597808186FFF9CF91961D
:101D70001C920895CF93DF93EC01EE85FF85E05C24
:101D8000FF4F20813181E054F0402F5F3F4F2F7390
:101D90003070DF01AE5BBF4F8D919C91119728177A
:101DA0003907D1F3E05CFF4F80819181E054F0402E
:101DB000E80FF91F6083EE85FF85E05CFF4F3183FC
:101DC0002083EE89FF89208181E090E00F8C02C0A2
:101DD000880F991F0A94E2F7282B208381E089A3BA
:101DE000EC89FD8980818064808381E090E0DF91CF
:101DF000CF91089510927A021092790288EE93E0C2
:101E0000A0E0B0E080937B0290937C02A0937D02DF
:101E1000B0937E028BE491E09093780280937702F6
:101E20008FEE91E0909384028093830283E392E0AB
:101E3000909386028093850285EC90E090938802CF
:101E40008093870284EC90E090938A0280938902C9
:101E500080EC90E090938C0280938B0281EC90E078
:101E600090938E0280938D0282EC90E0909390028A
:101E700080938F0286EC90E090939202809391027F
:101E800084E08093930283E08093940287E08093C0
:101E9000950285E08093960281E0809397020895F1
:101EA000CF93DF930E94A50C0E94F907C2E0DEE009
:101EB0000E941B062097E1F30E94020EF9CFCF92F9
:101EC000DF92EF92FF920F931F93CF93DF937C01EA
:101ED0006B018A01C0E0D0E00FC0D6016D916D01A9
:101EE000D701ED91FC910190F081E02DC70109959A
:101EF000C80FD91F015010400115110571F7CE010F
:101F0000DF91CF911F910F91FF90EF90DF90CF90D5
:101F10000895EF92FF920F931F938C01DC01ED91D6
:101F2000FC910190F081E02D6DE009957C01D801D4
:101F3000ED91FC910190F081E02DC8016AE00995D6
:101F40009C012E0D3F1DC9011F910F91FF90EF9035
:101F50000895CF93DF93EC016115710519F420E02A
:101F600030E00FC0DB010D900020E9F71197A61BB0
:101F7000B70BE881F9810280F381E02DAD0109956D
:101F80009C01C901DF91CF910895EF92FF920F93C9
:101F90001F937C010E94A90F8C01C7010E94890F29
:101FA000080F191FC8011F910F91FF90EF9008951E
:101FB0000F931F93CF93DF93FC018B0141155105C4
:101FC000F9F061157105E1F08481958128173907D1
:101FD00018F0FB01108214C041505040EC01C21BAC
:101FE000D30B4C175D0708F4EA0160817181620F21
:101FF000731FC801AE010E94A002C00FD11F18823A
:10200000DF91CF911F910F910895DC01FB01149690
:102010008D919C911597892B31F461157105A9F06B
:1020200090E0808108C00D90BC91A02D61157105D4
:1020300029F490E08C91882349F407C0CD010E94D7
:1020400090029C0190E0232B09F491E0892F0895E0
:102050000F931F93CF93DF93EC018B016F5F7F4F43
:10206000888199810E94AE01009711F480E005C03B
:10207000998388831B830A8381E0DF91CF911F912D
:102080000F910895CF93DF93EC0188819981892B7B
:1020900029F08A819B818617970760F4CE010E9400
:1020A0002810882341F08C819D81892B19F4E881C7
:1020B000F981108281E0DF91CF910895EF92FF9234
:1020C0000F931F93CF93DF93EC017B016C817D8194
:1020D000E114F104C1F04115510599F08A01060F90
:1020E000171FB8010E944210882369F088819981E6
:1020F0002C813D81820F931FB7010E9499021D839D
:102100000C8381E001C080E0DF91CF911F910F919E
:10211000FF90EF900895DF93CF9300D0CDB7DEB757
:1021200069831A82BE016F5F7F4F41E050E00E94D9
:102130005E100F900F90CF91DF910895CF93DF93B2
:10214000EC0188819981009711F00E945601198253
:1021500018821D821C821B821A82DF91CF91089502
:102160000F931F93182F092F0E948B10882321F49F
:10217000812F902F0E949E10812F902F1F910F91E1
:102180000895EF92FF920F931F93CF93DF93EC018B
:102190007B018A01BA010E944210882321F4CE01FA
:1021A0000E949E1007C01D830C8388819981B7010E
:1021B0000E949902CE01DF91CF911F910F91FF9064
:1021C000EF900895CF93DF93EC01198218821B8260
:1021D0001A821D821C821E826115710551F0DB017D
:1021E0000D900020E9F71197A61BB70BAD010E94D7
:1021F000C110DF91CF9108950F931F93182F092FCE
:102200006115710559F0DB010D900020E9F7119778
:10221000A61BB70BAD010E94C11002C00E949E1008
:10222000812F902F1F910F910895CF93DF93EC0191
:10223000FB018617970761F0608171816115710557
:1022400029F0448155810E94C11002C00E949E1055
:10225000CE01DF91CF910895FC011182108213828B
:1022600012821582148216820E9415110895FC01B3
:10227000808191810E9456010895FC0180819181A5
:102280000E94560108955058BB27AA270ED0DCC0E3
:10229000CDD030F0D2D020F031F49F3F11F41EF4B5
:1022A000C2C00EF4E095E7FBB8C0E92FDED080F3A2
:1022B000BA17620773078407950718F071F49EF543
:1022C000F6C00EF4E0950B2EBA2FA02D0B01B9012C
:1022D00090010C01CA01A0011124FF27591B99F09C
:1022E000593F50F4503E68F11A16F040A22F232FA8
:1022F000342F4427585FF3CF469537952795A795F8
:10230000F0405395C9F77EF41F16BA0B620B730B9E
:10231000840BBAF09150A1F0FF0FBB1F661F771F0F
:10232000881FC2F70EC0BA0F621F731F841F48F4C4
:10233000879577956795B795F7959E3F08F0B3CF4A
:102340009395880F08F09927EE0F97958795089534
:1023500040D008F481E00895E89409C097FB3EF46A
:1023600090958095709561957F4F8F4F9F4F9923E2
:10237000A9F0F92F96E9BB279395F6958795779560
:102380006795B795F111F8CFFAF4BB0F11F460FF20
:102390001BC06F5F7F4F8F4F9F4F16C0882311F078
:1023A00096E911C0772321F09EE8872F762F05C08C
:1023B000662371F096E8862F70E060E02AF09A9527
:1023C000660F771F881FDAF7880F9695879597F91C
:1023D0000895990F0008550FAA0BE0E8FEEF1616B6
:1023E0001706E807F907C0F012161306E407F50709
:1023F00098F0621B730B840B950B39F40A2661F07D
:10240000232B242B252B21F408950A2609F4A1401F
:10241000A6958FEF811D811D089597F99F6780E82C
:1024200070E060E008959FEF80EC089500240A9426
:102430001616170618060906089500240A9412169F
:102440001306140605060895092E0394000C11F4D2
:10245000882352F0BB0F40F4BF2B11F460FF04C07F
:102460006F5F7F4F8F4F9F4F089557FD9058440FD8
:10247000551F59F05F3F71F04795880F97FB991FE3
:1024800061F09F3F79F087950895121613061406A0
:10249000551FF2CF4695F1DF08C01616170618062D
:1024A000991FF1CF86957105610508940895E89408
:1024B000BB2766277727CB0197F908958ADF08F4B1
:1024C0008FEF08950BD0C0CFB1DF28F0B6DF18F042
:1024D000952309F0A2CFA7CF1124EACFC6DFA0F33E
:1024E000959FD1F3950F50E0551F629FF001729FA9
:1024F000BB27F00DB11D639FAA27F00DB11DAA1FC8
:10250000649F6627B00DA11D661F829F2227B00D14
:10251000A11D621F739FB00DA11D621F839FA00D9F
:10252000611D221F749F3327A00D611D231F849FEF
:10253000600D211D822F762F6A2F11249F57504046
:102540008AF0E1F088234AF0EE0FFF1FBB1F661FE1
:10255000771F881F91505040A9F79E3F510570F09A
:102560005CCFA6CF5F3FECF3983EDCF38695779582
:102570006795B795F795E7959F5FC1F7FE2B880F95
:10258000911D9695879597F90895EE0FFF1F059079
:10259000F491E02D0994911106C0803219F0895010
:1025A0008550D0F708959927882708952F923F9254
:1025B0004F925F926F927F928F929F92AF92BF9253
:1025C000CF92DF92EF92FF920F931F93CF93DF93FF
:1025D000CDB7DEB7CA1BDB0B0FB6F894DEBF0FBE5C
:1025E000CDBF09942A88398848885F846E847D84A9
:1025F0008C849B84AA84B984C884DF80EE80FD80AB
:102600000C811B81AA81B981CE0FD11D0FB6F89420
:10261000DEBF0FBECDBFED01089511E0C2E0D1E0F5
:1026200004C0FE010E94C7122296C430D107C9F728
:04263000F894FFCF4C
:10263400000A636C65617265640A0A0A00202B2033
:1026440000202D20004552524F520020009F0200CE
:10265400003738392B3435362D3132333F43302E61
:102664003D0203040506070809B80B00000000003A
:1026740000E50BE00BDC0B00000000BA0E5F0F500E
:082684000E810E610EAA0E008A
:00000001FF
